:020000040000FA
:100000000A128A11D02FFF0000308A007F08820771
:1000100008280A128A11662E0A128A11702E0A12F4
:100020008A11762E0A128A11942E0A128A11CC2E67
:100CCC008316031308148814080001340734043401
:100CDC000A340D348312031308080139752E0800E9
:100CEC0083120313080C01397B2E0800700C83123D
:100CFC000313031C0811031808150800700C831249
:100D0C000313031C8811031888150800700C831238
:100D1C000313031C08120318081608008316031784
:100D2C0089018316031386018312031386010800BD
:100D3C008316031308118811081283120313081168
:100D4C0088110812080006345B344F3466346D3455
:100D5C007D3407347F346F3477347C3439345E34EB
:100D6C007934713400347E088A007F0882000A12BC
:100D7C008A11B9260A128A118000840A04087D0699
:100D8C0003190034FF0A0319FE0ABD2E0A30700243
:100D9C000318D12ED22EDB2E7008203E8400831334
:100DAC000008831203138600DF2E831203138601BF
:100DBC00DF2E0800EF2EC730F200E42EF20BE32EEC
:100DCC00E72EE82E0130F0020030031CF103F10293
:100DDC00EF2E70087104031DF42EF52EE12EF62E65
:100DEC00080078080A128A1103200A128A117B085B
:100DFC000A128A1103200A128A110A128A119E26DB
:100E0C000A128A11F601F701F401F501B22FB22F83
:100E1C000130F6000030F700B22F79080A128A115F
:100E2C0003200A128A11003A03191D2F1E2FB22F0C
:100E3C000130F0000030F1000A128A117C260A12EF
:100E4C008A110130F0000030F1000A128A11842658
:100E5C000A128A110230F6000030F700B22FB22FBE
:100E6C00E830F0000330F1000A128A11E0260A1271
:100E7C008A110330F6000030F700B22F0130F00079
:100E8C000030F1000A128A117C260A128A110030F5
:100E9C00F000F1000A128A1184260A128A1101301C
:100EAC00F0000030F1000A128A118C260A128A1105
:100EBC000430F6000030F700B22F7408F30073080A
:100ECC00F0007C080A128A1103200A128A110130E0
:100EDC00F4070318F50A0030F5077508803AFF008F
:100EEC0080307F02031D7C2F09307402031C7F2F7E
:100EFC00802F832FF401F501832F0530F60000308D
:100F0C00F700B22F7A080A128A1103200A128A11EA
:100F1C00003A0319922F932FB22F0030F000F100FA
:100F2C000A128A117C260A128A110030F000F10094
:100F3C000A128A1184260A128A110030F000F1007C
:100F4C000A128A118C260A128A110130F60000301E
:100F5C00F700B22FB22FB22F7708003A0319B72F30
:100F6C00B22F7608003A03190E2F013A0319132FEA
:100F7C00033A0319362F013A0319442F073A031980
:100F8C00632F013A0319882FB22FB22FB22F0A12F6
:100F9C008A11002883133030FD000630FE00A93082
:100FAC00FF00203084000A128A11BD260A128A1111
:100FBC000A128A116B260A128A11F8000A128A1177
:100FCC006C260A128A11F9000A128A116D260A126D
:100FDC008A11FA000A128A116E260A128A11FB0073
:100FEC000A128A116F260A128A11FC0083010A1256
:040FFC008A11F72E31
:04400E00D4E8FFFFF4
:00000001FF
