:020000040000FA
:060000000A128A11EE2F26
:100EDE008316031388018312031388010800700818
:100EEE00203E840083130008831203138800080039
:100EFE003F3406345B344F3466346D347D340734FE
:100F0E007F346F3477347C3439345E3479347134D1
:100F1E007E088A007F0882000A128A118F270A1221
:100F2E008A118000840A04087D0603190034FF0A22
:100F3E000319FE0A932FB12FC730F200A62FF20B22
:100F4E00A52FA92FAA2F0130F0020030031CF103A8
:100F5E00F102B12F70087104031DB62FB72FA32F06
:100F6E00B82F08000A128A116F270A128A11F3018C
:100F7E00F401C12F7408F1007308F0000A128A11EF
:100F8E0076270A128A11E830F0000330F1000A12B7
:100F9E008A11A2270A128A110130F3070318F40AE4
:100FAE000030F4077408803AFF0080307F02031D82
:100FBE00E22F10307302031CE52FE62FC12FF30131
:100FCE00F401C12FC12FC12F0A128A1100288313D9
:100FDE003030FD000730FE007F30FF0020308400EF
:100FEE000A128A1193270A128A1183010A128A1190
:020FFE00B92F09
:04400E00D4E8FFFFF4
:00000001FF
