:020000040000FA
:100000000A128A11E22FFF0000308A007F0882075F
:0E00100008280A128A11F62E0A128A11232FCE
:100DC60001340434831603130814881408008312AC
:100DD600031308080139EF2E080083120313080CC9
:100DE6000139F52E080083160317890183160313AC
:100DF600860183120313860108003F3406345B34F0
:100E06004F3466346D347D3407347F346F34773431
:100E16007C3439345E34793471347E088A007F0834
:100E260082000A128A1110270A128A118000840A87
:100E360004087D0603190034FF0A0319FE0A142F5D
:100E4600093070020318282F292F322F7008203EF0
:100E5600840083130008831203138600362F83123F
:100E660003138601362F080076080A128A1103201A
:100E76000A128A11F401F501F3010A128A11E52614
:100E86000A128A119E2F9E2F0A128A11F0260A1222
:100E96008A11013A031D502F512F542FF301F30AE3
:100EA600542F0A128A11EA260A128A11013A031DE0
:100EB6005D2F5E2FB12F0230F1007108F300B12FC4
:100EC600B12F7508803AFF0080307F02031D6D2F19
:100ED60009307402031C702F712F782F0130F4072C
:100EE6000318F50A0030F5077B2FF401F5017B2F77
:100EF6000330F1007108F300B12F7508803AFF0046
:100F060080307F02031D892F01307402031C8C2F51
:100F16008D2F942FFF30F4070318F50AFF30F507DD
:100F2600982F0930F4000030F5000330F100710805
:100F3600F300B12FB12F7308F100F2017208003AE5
:100F46000319A62FB12F7108003A0319472F013A4A
:100F56000319642F033A0319802FB12F7408F10087
:100F66007108F00077080A128A1103200A128A1102
:100F76007508803AFF0080307F02031DC42F0A30B7
:100F86007402031CC72FC82FCB2FF401F501CB2FFA
:100F96007508803AFF0080307F02031DD42F013090
:100FA60074020318D72FD82F9E2F0930F400003073
:100FB600F5009E2F9E2F9E2F0A128A11002883135A
:100FC6003030FD000730FE000030FF002030840086
:100FD6000A128A1114270A128A110A128A11E326A2
:100FE6000A128A11F6000A128A11E4260A128A11D6
:0A0FF600F70083010A128A11372F59
:04400E00D4E8FFFFF4
:00000001FF
