:020000040000FA
:100000000A128A11E22FFF0000308A007F0882075F
:0E00100008280A128A11512F0A128A117E2F17
:100E9E000134043483160317890183160313860164
:100EAE0083120313860108003F3406345B344F343B
:100EBE0066346D347D3407347F346F3477347C344C
:100ECE0039345E34793471347E088A007F088200AA
:100EDE000A128A116B270A128A118000840A0408EA
:100EEE007D0603190034FF0A0319FE0A6F2F09301D
:100EFE0070020318832F842F8D2F7008203E8400DC
:100F0E0083130008831203138600912F8312031399
:100F1E008601912F0800A12FC730F200962FF20BF9
:100F2E00952F992F9A2F0130F0020030031CF103F8
:100F3E00F102A12F70087104031DA62FA72F932F66
:100F4E00A82F080076080A128A1103200A128A11A5
:100F5E00F401F501B22F7408F3007308F00077085E
:100F6E000A128A1103200A128A11740883120313BB
:100F7E0088007508803AFF0080307F02031DC92F5C
:100F8E0008307402031CCC2FCD2FD72FE830F00081
:100F9E000330F1000A128A1192270A128A11D72FF2
:100FAE000130F4070318F50A0030F507B22FB22FFF
:100FBE000A128A11002883133030FD000730FE001C
:100FCE005B30FF00203084000A128A116F270A124C
:100FDE008A110A128A114F270A128A11F6000A1272
:100FEE008A1150270A128A11F70083010A128A11F8
:020FFE00A92F19
:04400E00D4E8FFFFF4
:00000001FF
